:100000000C9463000C948B000C948B000C948B006C
:100010000C948B000C948B000C948B000C948B0034
:100020000C948B000C948B000C948B000C94850129
:100030000C948B000C948B000C948B000C948B0014
:100040000C9479030C948B000C946F060C94A1060D
:100050000C948B000C948B000C948B000C948B00F4
:100060000C948B000C948B0000000008000201002F
:100070000003040700000000000000000102040863
:100080001020408001020408102001020408102002
:10009000040404040404040402020202020203032E
:1000A00003030303000000002300260029000000D2
:1000B0000000250028002B0000000000240027007D
:1000C0002A008101D10611241FBECFEFD8E0DEBF88
:1000D000CDBF11E0A0E0B1E0ECE0F4E102C005909A
:1000E0000D92A234B107D9F722E0A2E4B1E001C039
:1000F0001D92AB31B207E1F710E0C6ECD0E004C0CE
:100100002297FE010E94F109C23CD107C9F70E9463
:1001100050080C94040A0C940000CF92DF92EF92E6
:10012000FF920F931F93E82FF92F05C0015011097B
:100130002109310961F1908196239417B9F305C023
:10014000015011092109310911F19081962394136D
:10015000F7CFC12CD12CE12CF12C0AC08FEFC81A9B
:10016000D80AE80AF80A0C151D052E053F0579F096
:1001700080818623841791F36C2D7D2D8E2D9F2DEC
:100180001F910F91FF90EF90DF90CF90089560E066
:1001900070E080E090E01F910F91FF90EF90DF9072
:1001A000CF90089526E040E855E260E070E08EE7E9
:1001B00091E00E940D0669E070E08CE491E00E94FD
:1001C000DB0261E08CE00E948F0460E08DE00E9421
:1001D0008F0464E071E08EE791E00C945D0760E0CD
:1001E0008CE00E94C80482E090E00E94200461E05C
:1001F0008CE00E94C8048AE090E00E94200460E045
:100200008CE00E94C80420E432E44FE050E061E05A
:100210008DE00E94FE046093460170934701809335
:1002200048019093490122E030E040E050E00E9414
:10023000C509CA01B9010E94FB082DEC3CEC48EE4F
:1002400051E40E9460080E94C808AB01BC014093C1
:10025000420150934301609344017093450177FF3D
:1002600003C06FE071E008C02AE030E08EE791E063
:100270000E94BE076CE171E08EE791E00C945D078F
:1002800010924B0110924A0160914A0170914B010A
:10029000643B7105B4F48CE491E00E9414030E9465
:1002A000EF006FE070E080E090E00E94E603809154
:1002B0004A0190914B01019690934B0180934A0122
:1002C000E3CF84EB90E090934B0180934A016091DF
:1002D0004A0170914B011616170694F48CE491E0D4
:1002E0000E9414030E94EF006FE070E080E090E055
:1002F0000E94E60380914A0190914B010197E3CF60
:1003000008958CE491E00C9441021F920F920FB675
:100310000F9211242F933F934F935F936F937F938B
:100320008F939F93AF93BF93EF93FF93809150016F
:1003300087FF05C010928500109284001AC020919A
:100340005001332727FD309580914F0190E0281709
:1003500039077CF480915001992787FD9095FC0125
:10036000EE0FFF1FE80FF91FEF5AFE4F808186FD49
:1003700015C0809150018F5F8093500120915001F2
:10038000332727FD309580914F0190E028173907DA
:10039000BCF4809150018C305CF112C0809150010E
:1003A000992787FD9095FC01EE0FFF1FE80FF91FBD
:1003B000EF5AFE4F808160E08F730E94C804D9CF4E
:1003C0008091840090918500049680349C4918F4B3
:1003D00080E49CE905C0809184009091850004969A
:1003E00090938900809388008FEF8093500138C0EC
:1003F000209184003091850080915001992787FDDC
:100400009095FC01EE0FFF1FE80FF91FEF5AFE4F0A
:1004100081819281820F931F90938900809388003D
:1004200080915001992787FD9095FC01EE0FFF1FE9
:10043000E80FF91FEF5AFE4F808186FF11C08091AF
:100440005001992787FD9095FC01EE0FFF1FE80FE3
:10045000F91FEF5AFE4F808161E08F730E94C8043C
:10046000FF91EF91BF91AF919F918F917F916F918C
:100470005F914F913F912F910F900FBE0F901F9062
:10048000189520914F012C30A0F431E0320F3093B9
:100490004F01FC012083822F90E0FC01EE0FFF1F33
:1004A000E80FF91FEF5AFE4F88EB9BE092838183A0
:1004B00008952FEFFC0120830895DF92EF92FF92C1
:1004C0000F931F93CF93DF93EC01D62E7A0189010E
:1004D00088818C3008F066C061E08D2D0E948F0409
:1004E0008881A82FB0E0FD01EE0FFF1FEA0FFB1F70
:1004F000EF5AFE4F2D2D2F739081907C922B90837D
:1005000060E272E06E197F0977FF02C06D5F7F4F76
:100510007595679575956795698340E659E0401B29
:10052000510B57FF02C04D5F5F4F5595479555954D
:1005300047954A836CE00E9497099CE0899FB0012F
:10054000112420E030E0A901460F571FFA01EE0FF9
:10055000FF1FE40FF51FEF5AFE4F908196FD16C066
:100560002F5F3F4F2C30310571F781110FC0109272
:10057000800082E0809381001092850010928400B8
:10058000B19A80916F00826080936F00888190E0C3
:10059000FC01EE0FFF1FE80FF91FEF5AFE4F80819D
:1005A000806480838881DF91CF911F910F91FF90AC
:1005B000EF90DF90089520E639E040E252E00C949D
:1005C0005D02FC0180818C3070F5918128E830E07B
:1005D000291B310997FD3395220F331F220F331F3B
:1005E000621773077CF0928128E532E0291B3109FC
:1005F00097FD3395220F331F220F331F62177307A6
:100600000CF49B0122503109220F331F4FB7F8948D
:1006100090E0FC01EE0FFF1FE80FF91FEF5AFE4FAD
:10062000328321834FBF08954F925F926F927F92E2
:10063000AF92BF92CF92DF92EF92FF920F931F93F0
:10064000CF93DF93EC01603282E078070CF040C07A
:1006500077FD06C0653B71052CF064EB70E002C0CD
:1006600060E070E0898128E830E0281B310987FDCF
:100670003395220F331F220F331F5901CC24B7FCAF
:10068000C094DC2C882777FD8095982F2A8148E537
:1006900052E0421B510927FD5395440F551F440F4B
:1006A000551F2A01662457FC6094762C7F926F9226
:1006B0005F924F9214EBE12EF12C00E010E020E06D
:1006C00030E0A9010E9408080F900F900F900F9042
:1006D000CE01DF91CF911F910F91FF90EF90DF90AE
:1006E000CF90BF90AF907F906F905F904F900C94A1
:1006F000E1021F920F920FB60F9211242F933F9396
:100700008F939F93AF93BF938091760190917701E0
:10071000A0917801B09179013091750123E0230F08
:100720002D3720F40196A11DB11D05C026E8230F29
:100730000296A11DB11D20937501809376019093BF
:100740007701A0937801B093790180917A0190911B
:100750007B01A0917C01B0917D010196A11DB11D8D
:1007600080937A0190937B01A0937C01B0937D01EB
:10077000BF91AF919F918F913F912F910F900FBE9D
:100780000F901F9018953FB7F89480917A0190913F
:100790007B01A0917C01B0917D0126B5A89B05C08D
:1007A0002F3F19F00196A11DB11D3FBF6627782F7D
:1007B000892F9A2F620F711D811D911D42E0660FD6
:1007C000771F881F991F4A95D1F708958F929F929E
:1007D000AF92BF92CF92DF92EF92FF926B017C01BA
:1007E0000E94C3034B015C01C114D104E104F10474
:1007F000F1F00E945F080E94C303681979098A0911
:100800009B09683E73408105910570F321E0C21A8F
:10081000D108E108F10888EE880E83E0981EA11C3B
:10082000B11CC114D104E104F10429F7DDCFFF901C
:10083000EF90DF90CF90BF90AF909F908F900895F2
:100840008230910538F0880F991F880F991F0597FE
:100850000197F1F70895789484B5826084BD84B5DA
:10086000816084BD85B5826085BD85B5816085BDAB
:10087000EEE6F0E0808181608083E1E8F0E01082C4
:10088000808182608083808181608083E0E8F0E005
:10089000808181608083E1EBF0E0808184608083EF
:1008A000E0EBF0E0808181608083EAE7F0E0808126
:1008B0008460808380818260808380818160808386
:1008C0008081806880831092C1000895833081F018
:1008D00028F4813099F08230A1F008958730A9F092
:1008E0008830B9F08430D1F4809180008F7D03C0CE
:1008F000809180008F7780938000089584B58F77F2
:1009000002C084B58F7D84BD08958091B0008F773B
:1009100003C08091B0008F7D8093B0000895CF9385
:10092000DF9390E0FC01E458FF4F2491FC01E05775
:10093000FF4F8491882349F190E0880F991FFC01B3
:10094000E854FF4FA591B49182559F4FFC01C5918A
:10095000D4919FB7611108C0F8948C91209582239F
:100960008C93888182230AC0623051F4F8948C9170
:10097000322F309583238C938881822B888304C007
:10098000F8948C91822B8C939FBFDF91CF91089527
:100990000F931F93CF93DF931F92CDB7DEB7282F0E
:1009A00030E0F901E859FF4F8491F901E458FF4F15
:1009B0001491F901E057FF4F04910023C9F08823F7
:1009C00021F069830E9466046981E02FF0E0EE0F58
:1009D000FF1FE255FF4FA591B4919FB7F8948C91FA
:1009E000611103C01095812301C0812B8C939FBF9F
:1009F0000F90DF91CF911F910F9108950F931F9347
:100A0000762F90E0FC01E458FF4F6491FC01E05721
:100A1000FF4FE4917111762FF0E0EE0FFF1FEC55C0
:100A2000FF4F8591949189019A013F70472F0E9451
:100A30008D00611571058105910531F06F5F7F4F64
:100A40008F4F9F4F9F7003C060E070E0CB011F91FC
:100A50000F910895FC01818D228D90E0805C9F4F65
:100A6000821B91098F7399270895FC01918D828DC6
:100A7000981731F0828DE80FF11D858D90E0089573
:100A80008FEF9FEF0895FC01918D828D981761F093
:100A9000828DDF01A80FB11D5D968C91928D9F5FB5
:100AA0009F73928F90E008958FEF9FEF089587ECEA
:100AB00096E0892B49F080E090E0892B29F00E9494
:100AC000C70681110C9400000895FC01848DDF019C
:100AD000A80FB11DA35ABF4F2C91848D90E00196B1
:100AE0008F739927848FA689B7892C93A089B189A0
:100AF0008C9180648C93938D848D981306C00288AA
:100B0000F389E02D80818F7D80830895CF93DF93DB
:100B1000EC01888D8823C9F0EA89FB89808185FDF5
:100B200005C0A889B9898C9186FD0FC00FB607FC56
:100B3000F5CF808185FFF2CFA889B9898C9185FF97
:100B4000EDCFCE010E946505E7CFDF91CF910895EB
:100B5000CF92DF92FF920F931F93CF93DF931F9259
:100B6000CDB7DEB76C0181E0D60158968C935897CB
:100B70005B969C915B975C968C915C97981307C0F1
:100B80005096ED91FC915197808185FD2EC0F60124
:100B9000038D10E00F5F1F4F0F731127F02EF6012A
:100BA000848DF81211C00FB607FCF9CFD60150960C
:100BB000ED91FC915197808185FFF1CFC60169834A
:100BC0000E9465056981EBCF838DE80FF11DE35A23
:100BD000FF4F6083D6015B960C935B975296ED9125
:100BE000FC915397808180620CC0D6015696ED919E
:100BF000FC91579760835096ED91FC9151978081BD
:100C00008064808381E090E00F90DF91CF911F910D
:100C10000F91FF90DF90CF900895BF92CF92DF9217
:100C2000EF92FF92CF93DF93EC016A017B01B22E2A
:100C3000E889F98982E08083411581EE58076105D2
:100C40007105A1F060E079E08DE390E0A7019601E5
:100C50000E94A30921503109410951095695479530
:100C600037952795211580E1380798F0E889F989AB
:100C7000108260E874E88EE190E0A70196010E947E
:100C8000A3092150310941095109569547953795D6
:100C90002795EC85FD853083EE85FF852083188EB2
:100CA000EC89FD89B082EA89FB898081806180833B
:100CB000EA89FB89808188608083EA89FB89808159
:100CC00080688083EA89FB8980818F7D8083DF91C2
:100CD000CF91FF90EF90DF90CF90BF9008951F923B
:100CE0000F920FB60F9211242F938F939F93EF9330
:100CF000FF93E0918E01F0918F018081E09194014A
:100D0000F091950182FD12C09081809197018F5FD3
:100D10008F7320919801821751F0E0919701F0E0D4
:100D2000E258FE4F958F8093970101C08081FF911B
:100D3000EF919F918F912F910F900FBE0F901F9069
:100D400018951F920F920FB60F9211242F933F9375
:100D50004F935F936F937F938F939F93AF93BF93C3
:100D6000EF93FF938EE791E00E946505FF91EF916D
:100D7000BF91AF919F918F917F916F915F914F91B3
:100D80003F912F910F900FBE0F901F9018958EE7F7
:100D900091E00E942A0521E0892B09F420E0822FAE
:100DA0000895109281011092800188EE93E0A0E0F6
:100DB000B0E08093820190938301A0938401B0936B
:100DC000850184E291E090937F0180937E0185EC20
:100DD00090E090938B0180938A0184EC90E0909353
:100DE0008D0180938C0180EC90E090938F01809333
:100DF0008E0181EC90E0909391018093900182ECC0
:100E000090E0909393018093920186EC90E0909310
:100E1000950180939401109297011092980110927D
:100E2000990110929A010895CF92DF92EF92FF926A
:100E30000F931F93CF93DF937C016A01EB0100E0D6
:100E400010E00C151D0571F06991D701ED91FC9131
:100E50000190F081E02DC7010995892B19F00F5FF2
:100E60001F4FEFCFC801DF91CF911F910F91FF90DE
:100E7000EF90DF90CF9008956115710581F0DB014F
:100E80000D900020E9F7AD0141505109461B570B69
:100E9000DC01ED91FC910280F381E02D099480E06A
:100EA00090E00895DC01ED91FC910190F081E02D3E
:100EB000099460E371E00C943C070F931F93CF9368
:100EC000DF93EC010E943C078C01CE010E94590780
:100ED000800F911FDF91CF911F910F9108958F92F5
:100EE0009F92AF92BF92DF92EF92FF920F931F9368
:100EF000CF93DF93CDB7DEB7A1970FB6F894DEBFDF
:100F00000FBECDBF7C01F42FD52ECB0119A222300C
:100F100008F42AE08E010F5D1F4F822E912CA12C28
:100F2000B12C6F2F7D2DA50194010E94A309F22FF2
:100F3000D32ECA01015011096A3014F4E0E301C054
:100F4000E7E3E60FD801EC93232B242B252B49F75D
:100F5000B801C7010E943C07A1960FB6F894DEBF06
:100F60000FBECDBFDF91CF911F910F91FF90EF90FA
:100F7000DF90BF90AF909F908F900895CF92DF92B7
:100F8000EF92FF920F931F93CF93DF93EC016A01CF
:100F90007B012115310579F4E881F9810190F08117
:100FA000E02D642FDF91CF911F910F91FF90EF9073
:100FB000DF90CF9009942A303105E9F477FF1AC009
:100FC0006DE20E9452078C0144275527BA014C1943
:100FD0005D096E097F092AE0CE010E946F07800F2C
:100FE000911FDF91CF911F910F91FF90EF90DF90B4
:100FF000CF9008952AE0B701A601CE01DF91CF91ED
:101000001F910F91FF90EF90DF90CF900C946F079E
:101010004F925F926F927F92AF92BF92CF92DF9288
:10102000EF92FF920F931F93CF93DF93CDB7DEB76D
:1010300029013A01621B730B840B950B29893A89AC
:101040004B895C892A193B094C095D09298B3A8B2C
:101050004B8B5C8B9B01AC0169897A898B899C895C
:101060000E948709E418F50806091709A8019701E5
:101070000E94C5092A0D3B1D4C1D5D1DCA01B90109
:10108000DF91CF911F910F91FF90EF90DF90CF9064
:10109000BF90AF907F906F905F904F9008950895AC
:1010A0000E942B040E944F080E94D200C7E5D5E0A1
:1010B0000E9440012097E1F30E945705F9CF08955F
:1010C0000CD0EBC0E3D040F0DAD030F021F45F3F39
:1010D00019F0CCC0511115C1CFC0F0D098F39923AD
:1010E000C9F35523B1F3951B550BBB27AA276217EC
:1010F0007307840738F09F5F5F4F220F331F441F31
:10110000AA1FA9F333D00E2E3AF0E0E830D0915068
:101110005040E695001CCAF729D0FE2F27D0660F55
:10112000771F881FBB1F261737074807AB07B0E894
:1011300009F0BB0B802DBF01FF2793585F4F2AF0AA
:101140009E3F510568F092C0DCC05F3FECF3983ED3
:10115000DCF3869577956795B795F7959F5FC9F707
:10116000880F911D9695879597F90895E1E0660F90
:10117000771F881FBB1F621773078407BA0720F009
:10118000621B730B840BBA0BEE1F88F7E095089572
:1011900004D06894B111B5C0089598D088F09F57D5
:1011A00090F0B92F9927B751A0F0D1F0660F771FB3
:1011B000881F991F1AF0BA95C9F712C0B13081F093
:1011C0009FD0B1E008959CC0672F782F8827B85F23
:1011D00039F0B93FCCF3869577956795B395D9F7F4
:1011E0003EF490958095709561957F4F8F4F9F4FFE
:1011F0000895E89409C097FB3EF49095809570950A
:1012000061957F4F8F4F9F4F9923A9F0F92F96E952
:10121000BB279395F695879577956795B795F111C7
:10122000F8CFFAF4BB0F11F460FF1BC06F5F7F4F64
:101230008F4F9F4F16C0882311F096E911C0772376
:1012400021F09EE8872F762F05C0662371F096E87F
:10125000862F70E060E02AF09A95660F771F881F4E
:10126000DAF7880F9695879597F9089597F99F670C
:1012700080E870E060E008959FEF80EC089500241E
:101280000A941616170618060906089500240A94EB
:1012900012161306140605060895092E0394000C71
:1012A00011F4882352F0BB0F40F4BF2B11F460FF00
:1012B00004C06F5F7F4F8F4F9F4F089557FD905829
:1012C000440F551F59F05F3F71F04795880F97FB0A
:1012D000991F61F09F3F79F08795089512161306C4
:1012E0001406551FF2CF4695F1DF08C016161706F3
:1012F0001806991FF1CF8695710561050894089528
:10130000E894BB2766277727CB0197F90895DB017F
:101310008F939F930E94E409BF91AF91A29F800D8C
:10132000911DA39F900DB29F900D11240895991BBC
:1013300079E004C0991F961708F0961B881F7A95CC
:10134000C9F780950895A1E21A2EAA1BBB1BFD01C7
:101350000DC0AA1FBB1FEE1FFF1FA217B307E40794
:10136000F50720F0A21BB30BE40BF50B661F771FEC
:10137000881F991F1A9469F76095709580959095CC
:101380009B01AC01BD01CF010895052E97FB1EF412
:1013900000940E94DC0957FD07D00E94A30907FCB6
:1013A00003D04EF40C94DC0950954095309521956E
:1013B0003F4F4F4F5F4F0895909580957095619581
:1013C0007F4F8F4F9F4F08950E94F509A59F900D65
:1013D000B49F900DA49F800D911D11240895EE0FD0
:1013E000FF1F0590F491E02D0994A29FB001B39FD7
:1013F000C001A39F700D811D1124911DB29F700D1E
:0C140000811D1124911D0895F894FFCF68
:10140C0001000000436F6E6E656374656421004FCC
:10141C007574206F662072616E67650020636D00C5
:10142C0000000000A80514072A05430535058605AC
:10143C000D0A006E616E00696E66006F7666002E96
:02144C0000009E
:107E0000112484B714BE81FFF0D085E080938100F7
:107E100082E08093C00088E18093C10086E0809377
:107E2000C20080E18093C4008EE0C9D0259A86E02C
:107E300020E33CEF91E0309385002093840096BBD3
:107E4000B09BFECF1D9AA8958150A9F7CC24DD24C4
:107E500088248394B5E0AB2EA1E19A2EF3E0BF2EE7
:107E6000A2D0813461F49FD0082FAFD0023811F036
:107E7000013811F484E001C083E08DD089C08234E0
:107E800011F484E103C0853419F485E0A6D080C0E4
:107E9000853579F488D0E82EFF2485D0082F10E0AE
:107EA000102F00270E291F29000F111F8ED06801E7
:107EB0006FC0863521F484E090D080E0DECF843638
:107EC00009F040C070D06FD0082F6DD080E0C81688
:107ED00080E7D80618F4F601B7BEE895C0E0D1E017
:107EE00062D089930C17E1F7F0E0CF16F0E7DF06D8
:107EF00018F0F601B7BEE89568D007B600FCFDCFD4
:107F0000A601A0E0B1E02C9130E011968C91119780
:107F100090E0982F8827822B932B1296FA010C0160
:107F200087BEE89511244E5F5F4FF1E0A038BF0790
:107F300051F7F601A7BEE89507B600FCFDCF97BE46
:107F4000E89526C08437B1F42ED02DD0F82E2BD052
:107F50003CD0F601EF2C8F010F5F1F4F84911BD097
:107F6000EA94F801C1F70894C11CD11CFA94CF0C13
:107F7000D11C0EC0853739F428D08EE10CD085E9AC
:107F80000AD08FE07ACF813511F488E018D01DD067
:107F900080E101D065CF982F8091C00085FFFCCF94
:107FA0009093C60008958091C00087FFFCCF809118
:107FB000C00084FD01C0A8958091C6000895E0E648
:107FC000F0E098E1908380830895EDDF803219F02E
:107FD00088E0F5DFFFCF84E1DECF1F93182FE3DFCA
:107FE0001150E9F7F2DF1F91089580E0E8DFEE27F6
:047FF000FF270994CA
:027FFE00040479
:0400000300007E007B
:00000001FF
